{
  "contractName": "TestArbitrage",
  "abi": [
    {
      "inputs": [
        {
          "internalType": "address",
          "name": "kyberAddress",
          "type": "address"
        },
        {
          "internalType": "address",
          "name": "uniswapAddress",
          "type": "address"
        },
        {
          "internalType": "address",
          "name": "wethAddress",
          "type": "address"
        },
        {
          "internalType": "address",
          "name": "daiAddress",
          "type": "address"
        }
      ],
      "payable": false,
      "stateMutability": "nonpayable",
      "type": "constructor"
    },
    {
      "payable": true,
      "stateMutability": "payable",
      "type": "fallback"
    },
    {
      "constant": false,
      "inputs": [
        {
          "internalType": "uint256",
          "name": "daiAmount",
          "type": "uint256"
        }
      ],
      "name": "kyberToUniswap",
      "outputs": [],
      "payable": false,
      "stateMutability": "nonpayable",
      "type": "function"
    },
    {
      "constant": false,
      "inputs": [
        {
          "internalType": "uint256",
          "name": "daiAmount",
          "type": "uint256"
        }
      ],
      "name": "uniswapToKyber",
      "outputs": [],
      "payable": false,
      "stateMutability": "nonpayable",
      "type": "function"
    }
  ],
  "bytecode": "0x60806040523480156200001157600080fd5b506040516200124a3803806200124a83398181016040526200003791908101906200015b565b836000806101000a81548173ffffffffffffffffffffffffffffffffffffffff021916908373ffffffffffffffffffffffffffffffffffffffff16021790555082600160006101000a81548173ffffffffffffffffffffffffffffffffffffffff021916908373ffffffffffffffffffffffffffffffffffffffff16021790555081600260006101000a81548173ffffffffffffffffffffffffffffffffffffffff021916908373ffffffffffffffffffffffffffffffffffffffff16021790555080600360006101000a81548173ffffffffffffffffffffffffffffffffffffffff021916908373ffffffffffffffffffffffffffffffffffffffff1602179055505050505062000215565b6000815190506200015581620001fb565b92915050565b600080600080608085870312156200017257600080fd5b6000620001828782880162000144565b9450506020620001958782880162000144565b9350506040620001a88782880162000144565b9250506060620001bb8782880162000144565b91505092959194509250565b6000620001d482620001db565b9050919050565b600073ffffffffffffffffffffffffffffffffffffffff82169050919050565b6200020681620001c7565b81146200021257600080fd5b50565b61102580620002256000396000f3fe6080604052600436106100295760003560e01c80637b0f79961461002b578063b649796714610054575b005b34801561003757600080fd5b50610052600480360361004d9190810190610b91565b61007d565b005b34801561006057600080fd5b5061007b60048036036100769190810190610b91565b610494565b005b600360009054906101000a900473ffffffffffffffffffffffffffffffffffffffff1673ffffffffffffffffffffffffffffffffffffffff166323b872dd3330846040518463ffffffff1660e01b81526004016100dc93929190610ce0565b602060405180830381600087803b1580156100f657600080fd5b505af115801561010a573d6000803e3d6000fd5b505050506040513d601f19601f8201168201806040525061012e9190810190610b68565b50600360009054906101000a900473ffffffffffffffffffffffffffffffffffffffff1673ffffffffffffffffffffffffffffffffffffffff1663095ea7b3600160009054906101000a900473ffffffffffffffffffffffffffffffffffffffff16836040518363ffffffff1660e01b81526004016101ae929190610d17565b602060405180830381600087803b1580156101c857600080fd5b505af11580156101dc573d6000803e3d6000fd5b505050506040513d601f19601f820116820180604052506102009190810190610b68565b50606060026040519080825280602002602001820160405280156102335781602001602082028038833980820191505090505b509050600360009054906101000a900473ffffffffffffffffffffffffffffffffffffffff168160008151811061026657fe5b602002602001019073ffffffffffffffffffffffffffffffffffffffff16908173ffffffffffffffffffffffffffffffffffffffff1681525050600260009054906101000a900473ffffffffffffffffffffffffffffffffffffffff16816001815181106102d057fe5b602002602001019073ffffffffffffffffffffffffffffffffffffffff16908173ffffffffffffffffffffffffffffffffffffffff16815250506060600160009054906101000a900473ffffffffffffffffffffffffffffffffffffffff1673ffffffffffffffffffffffffffffffffffffffff1663d06ca61f84846040518363ffffffff1660e01b8152600401610369929190610dae565b60006040518083038186803b15801561038157600080fd5b505afa158015610395573d6000803e3d6000fd5b505050506040513d6000823e3d601f19601f820116820180604052506103be9190810190610b27565b9050600160009054906101000a900473ffffffffffffffffffffffffffffffffffffffff1673ffffffffffffffffffffffffffffffffffffffff166318cbafe5848360018151811061040c57fe5b60200260200101518530426040518663ffffffff1660e01b8152600401610437959493929190610e2a565b600060405180830381600087803b15801561045157600080fd5b505af1158015610465573d6000803e3d6000fd5b505050506040513d6000823e3d601f19601f8201168201806040525061048e9190810190610b27565b50505050565b600360009054906101000a900473ffffffffffffffffffffffffffffffffffffffff1673ffffffffffffffffffffffffffffffffffffffff166323b872dd3330846040518463ffffffff1660e01b81526004016104f393929190610ce0565b602060405180830381600087803b15801561050d57600080fd5b505af1158015610521573d6000803e3d6000fd5b505050506040513d601f19601f820116820180604052506105459190810190610b68565b50600360009054906101000a900473ffffffffffffffffffffffffffffffffffffffff1673ffffffffffffffffffffffffffffffffffffffff1663095ea7b36000809054906101000a900473ffffffffffffffffffffffffffffffffffffffff16836040518363ffffffff1660e01b81526004016105c4929190610d17565b602060405180830381600087803b1580156105de57600080fd5b505af11580156105f2573d6000803e3d6000fd5b505050506040513d601f19601f820116820180604052506106169190810190610b68565b5060008060009054906101000a900473ffffffffffffffffffffffffffffffffffffffff1673ffffffffffffffffffffffffffffffffffffffff1663809a9e55600360009054906101000a900473ffffffffffffffffffffffffffffffffffffffff1673eeeeeeeeeeeeeeeeeeeeeeeeeeeeeeeeeeeeeeee856040518463ffffffff1660e01b81526004016106ad93929190610d40565b604080518083038186803b1580156106c457600080fd5b505afa1580156106d8573d6000803e3d6000fd5b505050506040513d601f19601f820116820180604052506106fc9190810190610be3565b5090506000809054906101000a900473ffffffffffffffffffffffffffffffffffffffff1673ffffffffffffffffffffffffffffffffffffffff16633bba21dc600360009054906101000a900473ffffffffffffffffffffffffffffffffffffffff1684846040518463ffffffff1660e01b815260040161077f93929190610d77565b602060405180830381600087803b15801561079957600080fd5b505af11580156107ad573d6000803e3d6000fd5b505050506040513d601f19601f820116820180604052506107d19190810190610bba565b50606060026040519080825280602002602001820160405280156108045781602001602082028038833980820191505090505b509050600260009054906101000a900473ffffffffffffffffffffffffffffffffffffffff168160008151811061083757fe5b602002602001019073ffffffffffffffffffffffffffffffffffffffff16908173ffffffffffffffffffffffffffffffffffffffff1681525050600360009054906101000a900473ffffffffffffffffffffffffffffffffffffffff16816001815181106108a157fe5b602002602001019073ffffffffffffffffffffffffffffffffffffffff16908173ffffffffffffffffffffffffffffffffffffffff16815250506060600160009054906101000a900473ffffffffffffffffffffffffffffffffffffffff1673ffffffffffffffffffffffffffffffffffffffff1663d06ca61f47846040518363ffffffff1660e01b815260040161093a929190610dae565b60006040518083038186803b15801561095257600080fd5b505afa158015610966573d6000803e3d6000fd5b505050506040513d6000823e3d601f19601f8201168201806040525061098f9190810190610b27565b9050600160009054906101000a900473ffffffffffffffffffffffffffffffffffffffff1673ffffffffffffffffffffffffffffffffffffffff16637ff36ab547836001815181106109dd57fe5b60200260200101518530426040518663ffffffff1660e01b8152600401610a079493929190610dde565b6000604051808303818588803b158015610a2057600080fd5b505af1158015610a34573d6000803e3d6000fd5b50505050506040513d6000823e3d601f19601f82011682018060405250610a5e9190810190610b27565b5050505050565b600082601f830112610a7657600080fd5b8151610a89610a8482610eb1565b610e84565b91508181835260208401935060208101905083856020840282011115610aae57600080fd5b60005b83811015610ade5781610ac48882610b12565b845260208401935060208301925050600181019050610ab1565b5050505092915050565b600081519050610af781610fb4565b92915050565b600081359050610b0c81610fcb565b92915050565b600081519050610b2181610fcb565b92915050565b600060208284031215610b3957600080fd5b600082015167ffffffffffffffff811115610b5357600080fd5b610b5f84828501610a65565b91505092915050565b600060208284031215610b7a57600080fd5b6000610b8884828501610ae8565b91505092915050565b600060208284031215610ba357600080fd5b6000610bb184828501610afd565b91505092915050565b600060208284031215610bcc57600080fd5b6000610bda84828501610b12565b91505092915050565b60008060408385031215610bf657600080fd5b6000610c0485828601610b12565b9250506020610c1585828601610b12565b9150509250929050565b6000610c2b8383610c46565b60208301905092915050565b610c4081610f5a565b82525050565b610c4f81610f12565b82525050565b610c5e81610f12565b82525050565b6000610c6f82610ee9565b610c798185610f01565b9350610c8483610ed9565b8060005b83811015610cb5578151610c9c8882610c1f565b9750610ca783610ef4565b925050600181019050610c88565b5085935050505092915050565b610ccb81610f6c565b82525050565b610cda81610f50565b82525050565b6000606082019050610cf56000830186610c37565b610d026020830185610c37565b610d0f6040830184610cd1565b949350505050565b6000604082019050610d2c6000830185610c55565b610d396020830184610cd1565b9392505050565b6000606082019050610d556000830186610cc2565b610d626020830185610cc2565b610d6f6040830184610cd1565b949350505050565b6000606082019050610d8c6000830186610cc2565b610d996020830185610cd1565b610da66040830184610cd1565b949350505050565b6000604082019050610dc36000830185610cd1565b8181036020830152610dd58184610c64565b90509392505050565b6000608082019050610df36000830187610cd1565b8181036020830152610e058186610c64565b9050610e146040830185610c37565b610e216060830184610cd1565b95945050505050565b600060a082019050610e3f6000830188610cd1565b610e4c6020830187610cd1565b8181036040830152610e5e8186610c64565b9050610e6d6060830185610c37565b610e7a6080830184610cd1565b9695505050505050565b6000604051905081810181811067ffffffffffffffff82111715610ea757600080fd5b8060405250919050565b600067ffffffffffffffff821115610ec857600080fd5b602082029050602081019050919050565b6000819050602082019050919050565b600081519050919050565b6000602082019050919050565b600082825260208201905092915050565b6000610f1d82610f30565b9050919050565b60008115159050919050565b600073ffffffffffffffffffffffffffffffffffffffff82169050919050565b6000819050919050565b6000610f6582610f90565b9050919050565b6000610f7782610f7e565b9050919050565b6000610f8982610f30565b9050919050565b6000610f9b82610fa2565b9050919050565b6000610fad82610f30565b9050919050565b610fbd81610f24565b8114610fc857600080fd5b50565b610fd481610f50565b8114610fdf57600080fd5b5056fea365627a7a723158208ae570a1b8be0d678bbba3bffe793701e8a02af4e1e4da41bd8124da597f75ce6c6578706572696d656e74616cf564736f6c63430005100040",
  "source": "pragma solidity ^0.5.0;\npragma experimental ABIEncoderV2;\n\nimport { KyberNetworkProxy as IKyberNetworkProxy } from '@studydefi/money-legos/kyber/contracts/KyberNetworkProxy.sol';\nimport \"@openzeppelin/contracts/token/ERC20/IERC20.sol\";\nimport './IUniswapV2Router02.sol';\nimport './IWeth.sol';\n\ncontract TestArbitrage {\n  IKyberNetworkProxy kyber;\n  IUniswapV2Router02 uniswap;\n  IWeth weth;\n  IERC20 dai;\n  address constant KYBER_ETH_ADDRESS = 0xEeeeeEeeeEeEeeEeEeEeeEEEeeeeEeeeeeeeEEeE;\n\n  constructor(\n      address kyberAddress,\n      address uniswapAddress,\n      address wethAddress,\n      address daiAddress\n  ) public {\n    kyber = IKyberNetworkProxy(kyberAddress);\n    uniswap = IUniswapV2Router02(uniswapAddress);\n    weth = IWeth(wethAddress);\n    dai = IERC20(daiAddress);\n  }\n\n  function kyberToUniswap(uint daiAmount) external {\n    dai.transferFrom(msg.sender, address(this), daiAmount);\n\n    //Buy ETH on Kyber\n    dai.approve(address(kyber), daiAmount); \n    (uint expectedRate, ) = kyber.getExpectedRate(\n      dai, \n      IERC20(KYBER_ETH_ADDRESS), \n      daiAmount\n    );\n    kyber.swapTokenToEther(dai, daiAmount, expectedRate);\n\n    //Sell ETH on Uniswap\n    address[] memory path = new address[](2);\n    path[0] = address(weth);\n    path[1] = address(dai);\n    uint[] memory minOuts = uniswap.getAmountsOut(address(this).balance, path); \n    uniswap.swapExactETHForTokens.value(address(this).balance)(\n      minOuts[1], \n      path, \n      address(this), \n      now\n    );\n  }\n\n  function uniswapToKyber(uint daiAmount) external {\n    dai.transferFrom(msg.sender, address(this), daiAmount);\n\n    //Buy ETH on Uniswap\n    dai.approve(address(uniswap), daiAmount); \n    address[] memory path = new address[](2);\n    path[0] = address(dai);\n    path[1] = address(weth);\n    uint[] memory minOuts = uniswap.getAmountsOut(daiAmount, path); \n    uniswap.swapExactTokensForETH(\n      daiAmount, \n      minOuts[1],\n      path, \n      address(this), \n      now\n    );\n\n    //Commented out because no liquidity on Kovan \n    /*\n    //Sell ETH on Kyber\n    (uint expectedRate, ) = kyber.getExpectedRate(\n      IERC20(KYBER_ETH_ADDRESS), \n      dai, \n      address(this).balance\n    );\n    kyber.swapEtherToToken.value(address(this).balance)(\n      dai, \n      expectedRate\n    );\n    */\n  }\n\n  function() external payable {}\n\n}\n",
  "sourcePath": "/home/lav/Documents/testing/contracts/TestArbitrage.sol",
  "compiler": {
    "name": "solc",
    "version": "0.5.16+commit.9c3226ce.Emscripten.clang"
  },
  "schemaVersion": "3.4.7",
  "updatedAt": "2022-08-09T13:49:07.570Z",
  "networkType": "ethereum",
  "devdoc": {
    "methods": {}
  },
  "userdoc": {
    "methods": {}
  }
}